{
  "abi": [
    {
      "type": "constructor",
      "inputs": [
        {
          "name": "_localChainId",
          "type": "uint256",
          "internalType": "uint256"
        },
        {
          "name": "_localPortAddress",
          "type": "address",
          "internalType": "address"
        },
        {
          "name": "_multicallAddress",
          "type": "address",
          "internalType": "address"
        }
      ],
      "stateMutability": "nonpayable"
    },
    {
      "type": "function",
      "name": "bridgeAgentAddress",
      "inputs": [],
      "outputs": [
        {
          "name": "",
          "type": "address",
          "internalType": "address payable"
        }
      ],
      "stateMutability": "view"
    },
    {
      "type": "function",
      "name": "bridgeAgentExecutorAddress",
      "inputs": [],
      "outputs": [
        {
          "name": "",
          "type": "address",
          "internalType": "address"
        }
      ],
      "stateMutability": "view"
    },
    {
      "type": "function",
      "name": "callOutAndBridge",
      "inputs": [
        {
          "name": "settlementOwner",
          "type": "address",
          "internalType": "address"
        },
        {
          "name": "recipient",
          "type": "address",
          "internalType": "address"
        },
        {
          "name": "outputToken",
          "type": "address",
          "internalType": "address"
        },
        {
          "name": "amountOut",
          "type": "uint256",
          "internalType": "uint256"
        },
        {
          "name": "depositOut",
          "type": "uint256",
          "internalType": "uint256"
        },
        {
          "name": "dstChainId",
          "type": "uint16",
          "internalType": "uint16"
        },
        {
          "name": "gasParams",
          "type": "tuple",
          "internalType": "struct GasParams",
          "components": [
            {
              "name": "gasLimit",
              "type": "uint256",
              "internalType": "uint256"
            },
            {
              "name": "remoteBranchExecutionGas",
              "type": "uint256",
              "internalType": "uint256"
            }
          ]
        }
      ],
      "outputs": [],
      "stateMutability": "payable"
    },
    {
      "type": "function",
      "name": "callOutAndBridgeMultiple",
      "inputs": [
        {
          "name": "settlementOwner",
          "type": "address",
          "internalType": "address"
        },
        {
          "name": "recipient",
          "type": "address",
          "internalType": "address"
        },
        {
          "name": "outputTokens",
          "type": "address[]",
          "internalType": "address[]"
        },
        {
          "name": "amountsOut",
          "type": "uint256[]",
          "internalType": "uint256[]"
        },
        {
          "name": "depositsOut",
          "type": "uint256[]",
          "internalType": "uint256[]"
        },
        {
          "name": "dstChainId",
          "type": "uint16",
          "internalType": "uint16"
        },
        {
          "name": "gasParams",
          "type": "tuple",
          "internalType": "struct GasParams",
          "components": [
            {
              "name": "gasLimit",
              "type": "uint256",
              "internalType": "uint256"
            },
            {
              "name": "remoteBranchExecutionGas",
              "type": "uint256",
              "internalType": "uint256"
            }
          ]
        }
      ],
      "outputs": [],
      "stateMutability": "payable"
    },
    {
      "type": "function",
      "name": "cancelOwnershipHandover",
      "inputs": [],
      "outputs": [],
      "stateMutability": "payable"
    },
    {
      "type": "function",
      "name": "completeOwnershipHandover",
      "inputs": [
        {
          "name": "pendingOwner",
          "type": "address",
          "internalType": "address"
        }
      ],
      "outputs": [],
      "stateMutability": "payable"
    },
    {
      "type": "function",
      "name": "execute",
      "inputs": [
        {
          "name": "encodedData",
          "type": "bytes",
          "internalType": "bytes"
        },
        {
          "name": "",
          "type": "uint16",
          "internalType": "uint16"
        }
      ],
      "outputs": [],
      "stateMutability": "payable"
    },
    {
      "type": "function",
      "name": "executeDepositMultiple",
      "inputs": [
        {
          "name": "",
          "type": "bytes",
          "internalType": "bytes"
        },
        {
          "name": "",
          "type": "tuple",
          "internalType": "struct DepositMultipleParams",
          "components": [
            {
              "name": "numberOfAssets",
              "type": "uint8",
              "internalType": "uint8"
            },
            {
              "name": "depositNonce",
              "type": "uint32",
              "internalType": "uint32"
            },
            {
              "name": "hTokens",
              "type": "address[]",
              "internalType": "address[]"
            },
            {
              "name": "tokens",
              "type": "address[]",
              "internalType": "address[]"
            },
            {
              "name": "amounts",
              "type": "uint256[]",
              "internalType": "uint256[]"
            },
            {
              "name": "deposits",
              "type": "uint256[]",
              "internalType": "uint256[]"
            }
          ]
        },
        {
          "name": "",
          "type": "uint16",
          "internalType": "uint16"
        }
      ],
      "outputs": [],
      "stateMutability": "payable"
    },
    {
      "type": "function",
      "name": "executeDepositSingle",
      "inputs": [
        {
          "name": "",
          "type": "bytes",
          "internalType": "bytes"
        },
        {
          "name": "",
          "type": "tuple",
          "internalType": "struct DepositParams",
          "components": [
            {
              "name": "depositNonce",
              "type": "uint32",
              "internalType": "uint32"
            },
            {
              "name": "hToken",
              "type": "address",
              "internalType": "address"
            },
            {
              "name": "token",
              "type": "address",
              "internalType": "address"
            },
            {
              "name": "amount",
              "type": "uint256",
              "internalType": "uint256"
            },
            {
              "name": "deposit",
              "type": "uint256",
              "internalType": "uint256"
            }
          ]
        },
        {
          "name": "",
          "type": "uint16",
          "internalType": "uint16"
        }
      ],
      "outputs": [],
      "stateMutability": "payable"
    },
    {
      "type": "function",
      "name": "executeRetrySettlement",
      "inputs": [
        {
          "name": "_owner",
          "type": "address",
          "internalType": "address"
        },
        {
          "name": "_settlementNonce",
          "type": "uint32",
          "internalType": "uint32"
        },
        {
          "name": "_recipient",
          "type": "address",
          "internalType": "address"
        },
        {
          "name": "",
          "type": "bytes",
          "internalType": "bytes"
        },
        {
          "name": "_gParams",
          "type": "tuple",
          "internalType": "struct GasParams",
          "components": [
            {
              "name": "gasLimit",
              "type": "uint256",
              "internalType": "uint256"
            },
            {
              "name": "remoteBranchExecutionGas",
              "type": "uint256",
              "internalType": "uint256"
            }
          ]
        },
        {
          "name": "_hasFallbackToggled",
          "type": "bool",
          "internalType": "bool"
        },
        {
          "name": "",
          "type": "uint16",
          "internalType": "uint16"
        }
      ],
      "outputs": [],
      "stateMutability": "payable"
    },
    {
      "type": "function",
      "name": "executeSigned",
      "inputs": [
        {
          "name": "encodedData",
          "type": "bytes",
          "internalType": "bytes"
        },
        {
          "name": "userAccount",
          "type": "address",
          "internalType": "address"
        },
        {
          "name": "",
          "type": "uint16",
          "internalType": "uint16"
        }
      ],
      "outputs": [],
      "stateMutability": "payable"
    },
    {
      "type": "function",
      "name": "executeSignedDepositMultiple",
      "inputs": [
        {
          "name": "encodedData",
          "type": "bytes",
          "internalType": "bytes"
        },
        {
          "name": "",
          "type": "tuple",
          "internalType": "struct DepositMultipleParams",
          "components": [
            {
              "name": "numberOfAssets",
              "type": "uint8",
              "internalType": "uint8"
            },
            {
              "name": "depositNonce",
              "type": "uint32",
              "internalType": "uint32"
            },
            {
              "name": "hTokens",
              "type": "address[]",
              "internalType": "address[]"
            },
            {
              "name": "tokens",
              "type": "address[]",
              "internalType": "address[]"
            },
            {
              "name": "amounts",
              "type": "uint256[]",
              "internalType": "uint256[]"
            },
            {
              "name": "deposits",
              "type": "uint256[]",
              "internalType": "uint256[]"
            }
          ]
        },
        {
          "name": "userAccount",
          "type": "address",
          "internalType": "address"
        },
        {
          "name": "",
          "type": "uint16",
          "internalType": "uint16"
        }
      ],
      "outputs": [],
      "stateMutability": "payable"
    },
    {
      "type": "function",
      "name": "executeSignedDepositSingle",
      "inputs": [
        {
          "name": "encodedData",
          "type": "bytes",
          "internalType": "bytes"
        },
        {
          "name": "",
          "type": "tuple",
          "internalType": "struct DepositParams",
          "components": [
            {
              "name": "depositNonce",
              "type": "uint32",
              "internalType": "uint32"
            },
            {
              "name": "hToken",
              "type": "address",
              "internalType": "address"
            },
            {
              "name": "token",
              "type": "address",
              "internalType": "address"
            },
            {
              "name": "amount",
              "type": "uint256",
              "internalType": "uint256"
            },
            {
              "name": "deposit",
              "type": "uint256",
              "internalType": "uint256"
            }
          ]
        },
        {
          "name": "userAccount",
          "type": "address",
          "internalType": "address"
        },
        {
          "name": "",
          "type": "uint16",
          "internalType": "uint16"
        }
      ],
      "outputs": [],
      "stateMutability": "payable"
    },
    {
      "type": "function",
      "name": "initialize",
      "inputs": [
        {
          "name": "_bridgeAgentAddress",
          "type": "address",
          "internalType": "address"
        }
      ],
      "outputs": [],
      "stateMutability": "nonpayable"
    },
    {
      "type": "function",
      "name": "localChainId",
      "inputs": [],
      "outputs": [
        {
          "name": "",
          "type": "uint256",
          "internalType": "uint256"
        }
      ],
      "stateMutability": "view"
    },
    {
      "type": "function",
      "name": "localPortAddress",
      "inputs": [],
      "outputs": [
        {
          "name": "",
          "type": "address",
          "internalType": "address"
        }
      ],
      "stateMutability": "view"
    },
    {
      "type": "function",
      "name": "multicallAddress",
      "inputs": [],
      "outputs": [
        {
          "name": "",
          "type": "address",
          "internalType": "address"
        }
      ],
      "stateMutability": "view"
    },
    {
      "type": "function",
      "name": "owner",
      "inputs": [],
      "outputs": [
        {
          "name": "result",
          "type": "address",
          "internalType": "address"
        }
      ],
      "stateMutability": "view"
    },
    {
      "type": "function",
      "name": "ownershipHandoverExpiresAt",
      "inputs": [
        {
          "name": "pendingOwner",
          "type": "address",
          "internalType": "address"
        }
      ],
      "outputs": [
        {
          "name": "result",
          "type": "uint256",
          "internalType": "uint256"
        }
      ],
      "stateMutability": "view"
    },
    {
      "type": "function",
      "name": "renounceOwnership",
      "inputs": [],
      "outputs": [],
      "stateMutability": "payable"
    },
    {
      "type": "function",
      "name": "requestOwnershipHandover",
      "inputs": [],
      "outputs": [],
      "stateMutability": "payable"
    },
    {
      "type": "function",
      "name": "retrySettlement",
      "inputs": [
        {
          "name": "_settlementNonce",
          "type": "uint32",
          "internalType": "uint32"
        },
        {
          "name": "_recipient",
          "type": "address",
          "internalType": "address"
        },
        {
          "name": "",
          "type": "bytes",
          "internalType": "bytes"
        },
        {
          "name": "_gParams",
          "type": "tuple",
          "internalType": "struct GasParams",
          "components": [
            {
              "name": "gasLimit",
              "type": "uint256",
              "internalType": "uint256"
            },
            {
              "name": "remoteBranchExecutionGas",
              "type": "uint256",
              "internalType": "uint256"
            }
          ]
        },
        {
          "name": "_hasFallbackToggled",
          "type": "bool",
          "internalType": "bool"
        }
      ],
      "outputs": [],
      "stateMutability": "payable"
    },
    {
      "type": "function",
      "name": "transferOwnership",
      "inputs": [
        {
          "name": "newOwner",
          "type": "address",
          "internalType": "address"
        }
      ],
      "outputs": [],
      "stateMutability": "payable"
    },
    {
      "type": "event",
      "name": "OwnershipHandoverCanceled",
      "inputs": [
        {
          "name": "pendingOwner",
          "type": "address",
          "indexed": true,
          "internalType": "address"
        }
      ],
      "anonymous": false
    },
    {
      "type": "event",
      "name": "OwnershipHandoverRequested",
      "inputs": [
        {
          "name": "pendingOwner",
          "type": "address",
          "indexed": true,
          "internalType": "address"
        }
      ],
      "anonymous": false
    },
    {
      "type": "event",
      "name": "OwnershipTransferred",
      "inputs": [
        {
          "name": "oldOwner",
          "type": "address",
          "indexed": true,
          "internalType": "address"
        },
        {
          "name": "newOwner",
          "type": "address",
          "indexed": true,
          "internalType": "address"
        }
      ],
      "anonymous": false
    },
    {
      "type": "error",
      "name": "AlreadyInitialized",
      "inputs": []
    },
    {
      "type": "error",
      "name": "NewOwnerIsZeroAddress",
      "inputs": []
    },
    {
      "type": "error",
      "name": "NoHandoverRequest",
      "inputs": []
    },
    {
      "type": "error",
      "name": "Unauthorized",
      "inputs": []
    },
    {
      "type": "error",
      "name": "UnrecognizedBridgeAgent",
      "inputs": []
    },
    {
      "type": "error",
      "name": "UnrecognizedBridgeAgentExecutor",
      "inputs": []
    },
    {
      "type": "error",
      "name": "UnrecognizedFunctionId",
      "inputs": []
    }
  ],
  "bytecode": {
    "object": "0x60e060405260016000553480156200001657600080fd5b506040516200258938038062002589833981016040819052620000399162000172565b6001600160a01b038216620000955760405162461bcd60e51b815260206004820152601e60248201527f4c6f63616c20506f727420416464726573732063616e6e6f742062652030000060448201526064015b60405180910390fd5b6001600160a01b038116620000ed5760405162461bcd60e51b815260206004820152601d60248201527f4d756c746963616c6c20416464726573732063616e6e6f74206265203000000060448201526064016200008c565b60808390526001600160a01b0380831660a052811660c052620001103362000119565b505050620001b3565b6001600160a01b0316638b78c6d8198190558060007f8be0079c531659141344cd1fd0a4f28419497f9722a3daafe3b4186f6b6457e08180a350565b80516001600160a01b03811681146200016d57600080fd5b919050565b6000806000606084860312156200018857600080fd5b835192506200019a6020850162000155565b9150620001aa6040850162000155565b90509250925092565b60805160a05160c051612391620001f86000396000818161016c01526111f601526000818161025401528181610efc01526110690152600061028801526123916000f3fe6080604052600436106101405760003560e01c80635b056da5116100b6578063a094139e1161006f578063a094139e14610308578063c4d66de81461031b578063e69019321461033b578063f04e283e1461034e578063f2fde38b14610361578063fee81cf41461037457600080fd5b80635b056da514610276578063617ef5b7146102b8578063715018a6146102c65780637d0cfac8146102ce5780638c252780146102dc5780638da5cb5b146102ef57600080fd5b80633779da4f116101085780633779da4f146101e657806337dcb530146101f95780634a6a99d914610207578063546af9311461021a57806354d1f13d1461023a5780635abfaf6c1461024257600080fd5b806301510d3714610145578063081786041461015a5780631f74bed3146101ab57806324e73159146101be57806325692962146101de575b600080fd5b610158610153366004611398565b6103a7565b005b34801561016657600080fd5b5061018e7f000000000000000000000000000000000000000000000000000000000000000081565b6040516001600160a01b0390911681526020015b60405180910390f35b6101586101b936600461145e565b610419565b3480156101ca57600080fd5b5060015461018e906001600160a01b031681565b61015861048d565b6101586101f43660046115a5565b6104dc565b610158610153366004611639565b61015861021536600461179a565b610509565b34801561022657600080fd5b5060025461018e906001600160a01b031681565b61015861057f565b34801561024e57600080fd5b5061018e7f000000000000000000000000000000000000000000000000000000000000000081565b34801561028257600080fd5b506102aa7f000000000000000000000000000000000000000000000000000000000000000081565b6040519081526020016101a2565b61015861014036600461184d565b6101586105bb565b6101586101403660046118c8565b6101586102ea366004611924565b6105cf565b3480156102fb57600080fd5b50638b78c6d8195461018e565b61015861031636600461197a565b6107a3565b34801561032757600080fd5b506101586103363660046119d6565b610800565b6101586103493660046119fa565b610906565b61015861035c3660046119d6565b6109a7565b61015861036f3660046119d6565b6109e7565b34801561038057600080fd5b506102aa61038f3660046119d6565b63389a75e1600c908152600091909152602090205490565b6002546001600160a01b031633146103d25760405163feb5180160e01b815260040160405180910390fd5b6000546001146103fd5760405162461bcd60e51b81526004016103f490611aaa565b60405180910390fd5b600260005561040d858584610a0e565b50506001600055505050565b600154604051637954549160e01b81526001600160a01b039091169063795454919034906104539033908b908b9089908990600401611ace565b6000604051808303818588803b15801561046c57600080fd5b505af1158015610480573d6000803e3d6000fd5b5050505050505050505050565b60006202a3006001600160401b03164201905063389a75e1600c5233600052806020600c2055337fdbf36a107da19e49527a7176a1babf963b4b0ff8cde35ee35d6cd8f1f9ac7e1d600080a250565b6104f16001600160a01b038616333087610e91565b61050087878787878787610ee5565b50505050505050565b60005b855181101561056f57610567333087848151811061052c5761052c611b22565b602002602001015189858151811061054657610546611b22565b60200260200101516001600160a01b0316610e91909392919063ffffffff16565b60010161050c565b5061050087878787878787611012565b63389a75e1600c523360005260006020600c2055337ffa7b8eab7da67f412cc9575ed43464468f9bfbae89d1675917346ca6d8fe3c92600080a2565b6105c3611155565b6105cd6000611170565b565b6000546001146105f15760405162461bcd60e51b81526004016103f490611aaa565b60026000819055546001600160a01b031633146106215760405163feb5180160e01b815260040160405180910390fd5b60008383600081811061063657610636611b22565b909101356001600160f81b031916915050600160f81b81900361069057600061066a6106658560018189611b38565b6111ae565b80602001905181019061067d9190611cc6565b9050610688816111f0565b505050610798565b6001600160f81b03198116600160f91b0361070c5760008080806106ba610665886001818c611b38565b8060200190518101906106cd9190611d95565b93509350935093506106de846111f0565b5050610703836000015184602001518560400151866060015187608001518787610ee5565b50505050610798565b6001600160f81b03198116600360f81b0361077f576000808080610736610665886001818c611b38565b8060200190518101906107499190611f7c565b935093509350935061075a846111f0565b5050610703836000015184602001518560400151866060015187608001518787611012565b6040516348d3a3f760e01b815260040160405180910390fd5b505060016000555050565b6000546001146107c55760405162461bcd60e51b81526004016103f490611aaa565b60026000819055546001600160a01b031633146107f55760405163feb5180160e01b815260040160405180910390fd5b610798848484610a0e565b610808611155565b6001600160a01b03811661085e5760405162461bcd60e51b815260206004820181905260248201527f427269646765204167656e7420416464726573732063616e6e6f74206265203060448201526064016103f4565b6108666105bb565b600180546001600160a01b0319166001600160a01b0383169081179091556040805163546af93160e01b8152905163546af931916004808201926020929091908290030181865afa1580156108bf573d6000803e3d6000fd5b505050506040513d601f19601f820116820180604052508101906108e39190611ff8565b600280546001600160a01b0319166001600160a01b039290921691909117905550565b6001546001600160a01b0316331461093157604051630a83747f60e31b815260040160405180910390fd5b600154604051637954549160e01b81526001600160a01b0390911690637954549190349061096b908c908c908c908a908a90600401611ace565b6000604051808303818588803b15801561098457600080fd5b505af1158015610998573d6000803e3d6000fd5b50505050505050505050505050565b6109af611155565b63389a75e1600c52806000526020600c2080544211156109d757636f5e88186000526004601cfd5b600090556109e481611170565b50565b6109ef611155565b8060601b610a0557637448fbae6000526004601cfd5b6109e481611170565b600083836000818110610a2357610a23611b22565b909101356001600160f81b031916915050600160f81b819003610ae2576000610a526106658560018189611b38565b806020019051810190610a659190611cc6565b6040516324fca5a560e21b81529091506001600160a01b038416906393f2969490610a9490849060040161205d565b6000604051808303816000875af1158015610ab3573d6000803e3d6000fd5b505050506040513d6000823e601f3d908101601f19168201604052610adb919081019061213e565b5050610e8b565b6001600160f81b03198116600160f91b03610c61576000808080610b0c610665886001818c611b38565b806020019051810190610b1f9190611d95565b9350935093509350856001600160a01b03166393f29694856040518263ffffffff1660e01b8152600401610b53919061205d565b6000604051808303816000875af1158015610b72573d6000803e3d6000fd5b505050506040513d6000823e601f3d908101601f19168201604052610b9a919081019061213e565b50600160ff1b836060015103610bc8576040830151610bc2906001600160a01b031687611291565b60608401525b604080840151606085015191516350edcbc160e11b81526001600160a01b039182166004820152602481019290925287169063a1db978290604401600060405180830381600087803b158015610c1d57600080fd5b505af1158015610c31573d6000803e3d6000fd5b50505050610c58836000015184602001518560400151866060015187608001518787610ee5565b50505050610e8b565b6001600160f81b03198116600360f81b0361077f576000808080610c8b610665886001818c611b38565b806020019051810190610c9e9190611f7c565b9350935093509350856001600160a01b03166393f29694856040518263ffffffff1660e01b8152600401610cd2919061205d565b6000604051808303816000875af1158015610cf1573d6000803e3d6000fd5b505050506040513d6000823e601f3d908101601f19168201604052610d19919081019061213e565b5060005b836040015151811015610e6757600160ff1b84606001518281518110610d4557610d45611b22565b602002602001015103610dae57610d8b8785604001518381518110610d6c57610d6c611b22565b60200260200101516001600160a01b031661129190919063ffffffff16565b84606001518281518110610da157610da1611b22565b6020026020010181815250505b866001600160a01b031663a1db978285604001518381518110610dd357610dd3611b22565b602002602001015186606001518481518110610df157610df1611b22565b60200260200101516040518363ffffffff1660e01b8152600401610e2a9291906001600160a01b03929092168252602082015260400190565b600060405180830381600087803b158015610e4457600080fd5b505af1158015610e58573d6000803e3d6000fd5b50505050806001019050610d1d565b50610c58836000015184602001518560400151866060015187608001518787611012565b50505050565b60405181606052826040528360601b602c526323b872dd60601b600c52602060006064601c6000895af13d156001600051141716610ed757637939f4246000526004601cfd5b600060605260405250505050565b6000610ef18486612172565b1115610f3657610f367f0000000000000000000000000000000000000000000000000000000000000000610f258587612172565b6001600160a01b03881691906112bd565b600154604080516060810182526001600160a01b0388811682526020808301898152838501898152945163fe2beab960e01b81528d841660048201528c8416602482015261ffff89166044820152610140606482015260006101448201819052945184166084820152905160a4820152935160c4850152855160e48501528501516101048401526101248301919091529091169063fe2beab9903490610164015b6000604051808303818588803b158015610ff057600080fd5b505af1158015611004573d6000803e3d6000fd5b505050505050505050505050565b60005b855181101561110057600084828151811061103257611032611b22565b602002602001015186838151811061104c5761104c611b22565b602002602001015161105e9190612172565b11156110f8576110f87f000000000000000000000000000000000000000000000000000000000000000085838151811061109a5761109a611b22565b60200260200101518784815181106110b4576110b4611b22565b60200260200101516110c69190612172565b8884815181106110d8576110d8611b22565b60200260200101516001600160a01b03166112bd9092919063ffffffff16565b600101611015565b5060015460408051606081018252878152602081018790528082018690529051637f6399b560e11b81526001600160a01b039092169163fec7336a913491610fd7918c918c91899189906000906004016121ce565b638b78c6d8195433146105cd576382b429006000526004601cfd5b638b78c6d81980546001600160a01b039092169182907f8be0079c531659141344cd1fd0a4f28419497f9722a3daafe3b4186f6b6457e0600080a355565b606082828080601f0160208091040260200160405190810160405280939291908181526020018383808284376000920191909152509293505050505b92915050565b600060607f00000000000000000000000000000000000000000000000000000000000000006001600160a01b031663252dba42846040518263ffffffff1660e01b815260040161124091906122c0565b6000604051808303816000875af115801561125f573d6000803e3d6000fd5b505050506040513d6000823e601f3d908101601f191682016040526112879190810190612315565b9094909350915050565b6000816014526370a0823160601b60005260208060246010865afa601f3d111660205102905092915050565b816014528060345263095ea7b360601b60005260206000604460106000875af13d1560016000511417166112f957633e3f8f736000526004601cfd5b6000603452505050565b60008083601f84011261131557600080fd5b5081356001600160401b0381111561132c57600080fd5b60208301915083602082850101111561134457600080fd5b9250929050565b600060c0828403121561135d57600080fd5b50919050565b6001600160a01b03811681146109e457600080fd5b61ffff811681146109e457600080fd5b803561139381611378565b919050565b6000806000806000608086880312156113b057600080fd5b85356001600160401b03808211156113c757600080fd5b6113d389838a01611303565b909750955060208801359150808211156113ec57600080fd5b506113f98882890161134b565b935050604086013561140a81611363565b9150606086013561141a81611378565b809150509295509295909350565b803563ffffffff8116811461139357600080fd5b60006040828403121561135d57600080fd5b8035801515811461139357600080fd5b60008060008060008060c0878903121561147757600080fd5b61148087611428565b9550602087013561149081611363565b945060408701356001600160401b038111156114ab57600080fd5b6114b789828a01611303565b90955093506114cb9050886060890161143c565b91506114d960a0880161144e565b90509295509295509295565b634e487b7160e01b600052604160045260246000fd5b604080519081016001600160401b038111828210171561151d5761151d6114e5565b60405290565b60405160a081016001600160401b038111828210171561151d5761151d6114e5565b604051601f8201601f191681016001600160401b038111828210171561156d5761156d6114e5565b604052919050565b60006040828403121561158757600080fd5b61158f6114fb565b9050813581526020820135602082015292915050565b6000806000806000806000610100888a0312156115c157600080fd5b87356115cc81611363565b965060208801356115dc81611363565b955060408801356115ec81611363565b9450606088013593506080880135925060a088013561160a81611378565b91506116198960c08a01611575565b905092959891949750929550565b600060a0828403121561135d57600080fd5b6000806000806000610100868803121561165257600080fd5b85356001600160401b0381111561166857600080fd5b61167488828901611303565b909650945061168890508760208801611627565b925060c086013561169881611363565b915060e086013561141a81611378565b60006001600160401b038211156116c1576116c16114e5565b5060051b60200190565b600082601f8301126116dc57600080fd5b813560206116f16116ec836116a8565b611545565b82815260059290921b8401810191818101908684111561171057600080fd5b8286015b8481101561173457803561172781611363565b8352918301918301611714565b509695505050505050565b600082601f83011261175057600080fd5b813560206117606116ec836116a8565b82815260059290921b8401810191818101908684111561177f57600080fd5b8286015b848110156117345780358352918301918301611783565b6000806000806000806000610100888a0312156117b657600080fd5b87356117c181611363565b965060208801356117d181611363565b955060408801356001600160401b03808211156117ed57600080fd5b6117f98b838c016116cb565b965060608a013591508082111561180f57600080fd5b61181b8b838c0161173f565b955060808a013591508082111561183157600080fd5b5061183e8a828b0161173f565b93505061160a60a08901611388565b6000806000806060858703121561186357600080fd5b84356001600160401b038082111561187a57600080fd5b61188688838901611303565b9096509450602087013591508082111561189f57600080fd5b506118ac8782880161134b565b92505060408501356118bd81611378565b939692955090935050565b60008060008060e085870312156118de57600080fd5b84356001600160401b038111156118f457600080fd5b61190087828801611303565b909550935061191490508660208701611627565b915060c08501356118bd81611378565b60008060006040848603121561193957600080fd5b83356001600160401b0381111561194f57600080fd5b61195b86828701611303565b909450925050602084013561196f81611378565b809150509250925092565b6000806000806060858703121561199057600080fd5b84356001600160401b038111156119a657600080fd5b6119b287828801611303565b90955093505060208501356119c681611363565b915060408501356118bd81611378565b6000602082840312156119e857600080fd5b81356119f381611363565b9392505050565b600080600080600080600080610100898b031215611a1757600080fd5b8835611a2281611363565b9750611a3060208a01611428565b96506040890135611a4081611363565b955060608901356001600160401b03811115611a5b57600080fd5b611a678b828c01611303565b9096509450611a7b90508a60808b0161143c565b9250611a8960c08a0161144e565b915060e0890135611a9981611378565b809150509295985092959890939650565b6020808252600a90820152695245454e5452414e435960b01b604082015260600190565b6001600160a01b03958616815263ffffffff9490941660208086019190915292909416604084015260e06060840181905260009084015280356080840152013560a082015290151560c08201526101000190565b634e487b7160e01b600052603260045260246000fd5b60008085851115611b4857600080fd5b83861115611b5557600080fd5b5050820193919092039150565b805161139381611363565b60005b83811015611b88578181015183820152602001611b70565b50506000910152565b600082601f830112611ba257600080fd5b81516001600160401b03811115611bbb57611bbb6114e5565b611bce601f8201601f1916602001611545565b818152846020838601011115611be357600080fd5b611bf4826020830160208701611b6d565b949350505050565b600082601f830112611c0d57600080fd5b81516020611c1d6116ec836116a8565b82815260059290921b84018101918181019086841115611c3c57600080fd5b8286015b848110156117345780516001600160401b0380821115611c605760008081fd5b908801906040828b03601f1901811315611c7a5760008081fd5b611c826114fb565b87840151611c8f81611363565b8152908301519082821115611ca45760008081fd5b611cb28c8984870101611b91565b818901528652505050918301918301611c40565b600060208284031215611cd857600080fd5b81516001600160401b03811115611cee57600080fd5b611bf484828501611bfc565b600060a08284031215611d0c57600080fd5b611d14611523565b90508151611d2181611363565b81526020820151611d3181611363565b60208201526040820151611d4481611363565b80604083015250606082015160608201526080820151608082015292915050565b600060408284031215611d7757600080fd5b611d7f6114fb565b9050815181526020820151602082015292915050565b6000806000806101208587031215611dac57600080fd5b84516001600160401b03811115611dc257600080fd5b611dce87828801611bfc565b945050611dde8660208701611cfa565b925060c0850151611dee81611378565b9150611dfd8660e08701611d65565b905092959194509250565b600082601f830112611e1957600080fd5b81516020611e296116ec836116a8565b82815260059290921b84018101918181019086841115611e4857600080fd5b8286015b84811015611734578051611e5f81611363565b8352918301918301611e4c565b600082601f830112611e7d57600080fd5b81516020611e8d6116ec836116a8565b82815260059290921b84018101918181019086841115611eac57600080fd5b8286015b848110156117345780518352918301918301611eb0565b600060a08284031215611ed957600080fd5b611ee1611523565b9050611eec82611b62565b8152611efa60208301611b62565b602082015260408201516001600160401b0380821115611f1957600080fd5b611f2585838601611e08565b60408401526060840151915080821115611f3e57600080fd5b611f4a85838601611e6c565b60608401526080840151915080821115611f6357600080fd5b50611f7084828501611e6c565b60808301525092915050565b60008060008060a08587031215611f9257600080fd5b84516001600160401b0380821115611fa957600080fd5b611fb588838901611bfc565b95506020870151915080821115611fcb57600080fd5b50611fd887828801611ec7565b9350506040850151611fe981611378565b9150611dfd8660608701611d65565b60006020828403121561200a57600080fd5b81516119f381611363565b60018060a01b03815116825260006020820151604060208501528051806040860152612048816060870160208501611b6d565b601f01601f1916939093016060019392505050565b6000602080830181845280855180835260408601915060408160051b870101925083870160005b828110156120b257603f198886030184526120a0858351612015565b94509285019290850190600101612084565b5092979650505050505050565b600082601f8301126120d057600080fd5b815160206120e06116ec836116a8565b82815260059290921b840181019181810190868411156120ff57600080fd5b8286015b848110156117345780516001600160401b038111156121225760008081fd5b6121308986838b0101611b91565b845250918301918301612103565b60006020828403121561215057600080fd5b81516001600160401b0381111561216657600080fd5b611bf4848285016120bf565b818103818111156111ea57634e487b7160e01b600052601160045260246000fd5b600081518084526020808501945080840160005b838110156121c3578151875295820195908201906001016121a7565b509495945050505050565b600061010060018060a01b03808a1684526020818a168186015261ffff8916604086015282606086015260008386015261012092508260808601526101808501885160608588015281945080518083526101a0880195508382019250600091505b808210156122515782518516865294830194918301916001919091019061222f565b50505087015161011f1985840381016101408701529091506122738383612193565b9250604088015191508085840301610160860152506122928282612193565b865160a0860152602087015160c086015292506122ad915050565b82151560e0830152979650505050505050565b6000602080830181845280855180835260408601915060408160051b870101925083870160005b828110156120b257603f19888603018452612303858351612015565b945092850192908501906001016122e7565b6000806040838503121561232857600080fd5b8251915060208301516001600160401b0381111561234557600080fd5b612351858286016120bf565b915050925092905056fea2646970667358221220db2401b258ab2e42851d99c949ab54f413893886e07af4fa19fbd14d72012b6f64736f6c63430008130033",
    "linkReferences": {}
  },
  "methodIdentifiers": {
    "bridgeAgentAddress()": "24e73159",
    "bridgeAgentExecutorAddress()": "546af931",
    "callOutAndBridge(address,address,address,uint256,uint256,uint16,(uint256,uint256))": "3779da4f",
    "callOutAndBridgeMultiple(address,address,address[],uint256[],uint256[],uint16,(uint256,uint256))": "4a6a99d9",
    "cancelOwnershipHandover()": "54d1f13d",
    "completeOwnershipHandover(address)": "f04e283e",
    "execute(bytes,uint16)": "8c252780",
    "executeDepositMultiple(bytes,(uint8,uint32,address[],address[],uint256[],uint256[]),uint16)": "617ef5b7",
    "executeDepositSingle(bytes,(uint32,address,address,uint256,uint256),uint16)": "7d0cfac8",
    "executeRetrySettlement(address,uint32,address,bytes,(uint256,uint256),bool,uint16)": "e6901932",
    "executeSigned(bytes,address,uint16)": "a094139e",
    "executeSignedDepositMultiple(bytes,(uint8,uint32,address[],address[],uint256[],uint256[]),address,uint16)": "01510d37",
    "executeSignedDepositSingle(bytes,(uint32,address,address,uint256,uint256),address,uint16)": "37dcb530",
    "initialize(address)": "c4d66de8",
    "localChainId()": "5b056da5",
    "localPortAddress()": "5abfaf6c",
    "multicallAddress()": "08178604",
    "owner()": "8da5cb5b",
    "ownershipHandoverExpiresAt(address)": "fee81cf4",
    "renounceOwnership()": "715018a6",
    "requestOwnershipHandover()": "25692962",
    "retrySettlement(uint32,address,bytes,(uint256,uint256),bool)": "1f74bed3",
    "transferOwnership(address)": "f2fde38b"
  },
  "id": 88
}